:020000040000FA
:100000000C9434000C948B010C943E000C943E0034
:100010000C943E000C943E000C943E000C943E0068
:100020000C943E000C943E000C943E000C943E0058
:100030000C943E000C943E000C943E000C943E0048
:100040000C943E000C943E000C943E000C943E0038
:100050000C943E000C943E000C943E000C943E0028
:100060000C943E000C943E0011241FBECFEFD8E04C
:10007000DEBFCDBF0E9440000C949D010C94000097
:100080002D9A71E07DBB72E070936900789434D151
:100090002D9901C0FCCF0FEF0AB904B928982CD1D3
:1000A00014D0BFD0F4CF08E022D026D1F0CF2D9BC2
:1000B000FACF01E01CD020D106E019D01DD16DD0BF
:1000C00014E01FD11A95E9F7089503E310D014D175
:1000D00002E30DD011D108E20AD00ED10CE007D016
:1000E00001E005D009D106E002D023D00895B02F59
:1000F000B07FBBB92A98289AF7D02898F8D0B02FAB
:10010000B295B07FBBB9289AEFD02898F0D0089567
:10011000B02FB07FBBB92A9A289AE6D02898E7D0AA
:10012000B02FB295B07FBBB9289ADED02898DFD027
:1001300008950BE42FD005E62DD00CE62BD00FE66A
:1001400029D00DE627D000E725D00FE623D00BE617
:1001500021D000E21FD001E31DD000ECC8DFCCD0DD
:1001600001E418D003E416D000E214D001E412D068
:1001700005E710D004E70ED00FE60CD00DE60AD04C
:1001800001E608D004E706D005E604D095D001E0EA
:10019000AEDF0895BDDFB5D0089515D00C2F37D050
:1001A00016D000ECA4DFA8D01CD00A2F30D005E276
:1001B000AFDFA7D011E1A5D01A9509F40895A1D019
:1001C0001A95E9F70895EAEFF1E00FD0089500E2FB
:1001D0009FDF97D00FED9CDF94D003E499DF91D09F
:1001E0000895E4E0F2E001D008952591203021F057
:1001F000022F8EDF86D0F9CF0895537568752020C1
:100200003A02030048756D6964203A0203002DD05C
:10021000012F005D7DDF75D0022F005D79DF71D089
:1002200008951FEF49D0219A29983CD0299A219806
:100230001999FECF199BFECF1999FECF06D0A22F98
:1002400004D003D0C22F33DFEDCF18E02227199B53
:10025000FECF3CD0199B03C00894221F01C0220F7F
:100260001999FECF1A9599F70895112722273AE098
:10027000031718F0031B1395FBCF202F0895702F41
:10028000007F0295005DC02FCA5342F40895072FE6
:100290000F70005DC02FCA531AF40895095FF6CF9E
:1002A000095FFBCF5FEF62ED72E07A95F1F76A9537
:1002B000D9F75A95C1F708955FEF6FEF74EA7A9511
:1002C000F1F76A95D9F75A95C1F70895442746BDC5
:1002D00044E647BD4AE045BD45B341FFFDCF442755
:1002E00045BD42E045BB08950000000008954AE581
:1002F000FBDF4A95E9F7089558E2F9DF5A95E9F7E7
:10030000089544E154E164E16A95F1F75A95D9F70B
:100310004A95C1F708951F920F920FB60F921124BC
:100320008F939F9385B190E2892785B99F918F9193
:0E0330000F900FBE0F901F901895F894FFCFFE
:107E0000112484B714BE81FFF0D085E080938100F7
:107E100082E08093C00088E18093C10086E0809377
:107E2000C20080E18093C4008EE0C9D0259A86E02C
:107E300020E33CEF91E0309385002093840096BBD3
:107E4000B09BFECF1D9AA8958150A9F7CC24DD24C4
:107E500088248394B5E0AB2EA1E19A2EF3E0BF2EE7
:107E6000A2D0813461F49FD0082FAFD0023811F036
:107E7000013811F484E001C083E08DD089C08234E0
:107E800011F484E103C0853419F485E0A6D080C0E4
:107E9000853579F488D0E82EFF2485D0082F10E0AE
:107EA000102F00270E291F29000F111F8ED06801E7
:107EB0006FC0863521F484E090D080E0DECF843638
:107EC00009F040C070D06FD0082F6DD080E0C81688
:107ED00080E7D80618F4F601B7BEE895C0E0D1E017
:107EE00062D089930C17E1F7F0E0CF16F0E7DF06D8
:107EF00018F0F601B7BEE89568D007B600FCFDCFD4
:107F0000A601A0E0B1E02C9130E011968C91119780
:107F100090E0982F8827822B932B1296FA010C0160
:107F200087BEE89511244E5F5F4FF1E0A038BF0790
:107F300051F7F601A7BEE89507B600FCFDCF97BE46
:107F4000E89526C08437B1F42ED02DD0F82E2BD052
:107F50003CD0F601EF2C8F010F5F1F4F84911BD097
:107F6000EA94F801C1F70894C11CD11CFA94CF0C13
:107F7000D11C0EC0853739F428D08EE10CD085E9AC
:107F80000AD08FE07ACF813511F488E018D01DD067
:107F900080E101D065CF982F8091C00085FFFCCF94
:107FA0009093C60008958091C00087FFFCCF809118
:107FB000C00084FD01C0A8958091C6000895E0E648
:107FC000F0E098E1908380830895EDDF803219F02E
:107FD00088E0F5DFFFCF84E1DECF1F93182FE3DFCA
:107FE0001150E9F7F2DF1F91089580E0E8DFEE27F6
:047FF000FF270994CA
:027FFE00040479
:00000001FF
