:100000000C9434000C943E000C943E000C943E0082
:100010000C943E000C943E000C943E000C943E0068
:100020000C943E000C943E000C943E000C943E0058
:100030000C943E000C943E000C943E000C943E0048
:100040000C943E000C943E000C943E000C943E0038
:100050000C943E000C943E000C943E000C943E0028
:100060000C943E000C943E0011241FBECFEFD8E04C
:10007000DEBFCDBF0E9440000C9413010C94000021
:100080007BD0FECF0FEF0AB904B9289866D008D00C
:100090003AD017D062D014E065D01A95E9F76DC058
:1000A00003E30FD05AD002E30CD057D008E209D0B6
:1000B00054D00CE006D001E004D04FD006E001D0CF
:1000C0000895B02FB07FBBB92A98289A3ED02898BF
:1000D0003FD0B02FB295B07FBBB9289A36D02898C0
:1000E00037D00895B02FB07FBBB92A9A289A2DD067
:1000F00028982ED0B02FB295B07FBBB9289A25D0C2
:10010000289826D00895022F7BD0ECDF2BD080D00A
:10011000E9DF28D000ECD5DF20D000E5E3DF22D0F6
:1001200002E7E0DF1FD000E2DDDF0CE4DBDF1AD006
:1001300003E4D8DF17D004E4D5DF14D001E2D2DF26
:1001400011E110D01A95E9F7089500000000089514
:100150004AE5FBDF4A95E9F7089558E2F9DF5A9539
:10016000E9F7089544E154E164E16A95F1F75A959D
:10017000D9F74A95C1F708951FEF2AD0219A2998F7
:100180001DD0299A21981999FECF199BFECF199954
:10019000FECF04D003D002D075DFEFCF18E02227C6
:1001A000199BFECF1FD0199B03C00894221F01C0CA
:1001B000220F1999FECF1A9599F708955FEF62ED16
:1001C00072E07A95F1F76A95D9F75A95C1F70895D3
:1001D0005FEF6FEF74EA7A95F1F76A95D9F75A9560
:1001E000C1F70895442746BD44E647BD4AE045BDF2
:1001F00045B341FFFDCF442745BD42E045BB0895CF
:10020000702F007F0295005DC02FCA5342F40895FD
:10021000072F0F70005DC02FCA531AF40895095FAD
:0A022000F6CF095FFBCFF894FFCF83
:00000001FF
