:020000040000FA
:100000000C9434000C943E000C943E000C943E0082
:100010000C943E000C943E000C943E000C943E0068
:100020000C943E000C943E000C943E000C943E0058
:100030000C943E000C943E000C943E000C943E0048
:100040000C943E000C943E000C943E000C943E0038
:100050000C943E000C943E000C943E000C943E0028
:100060000C943E000C943E0011241FBECFEFD8E04C
:10007000DEBFCDBF0E9440000C9413010C94000021
:100080007BD0FECF0FEF0AB904B9289866D008D00C
:100090003AD017D062D014E065D01A95E9F76DC058
:1000A00003E30FD05AD002E30CD057D008E209D0B6
:1000B00054D00CE006D001E004D04FD006E001D0CF
:1000C0000895B02FB07FBBB92A98289A3ED02898BF
:1000D0003FD0B02FB295B07FBBB9289A36D02898C0
:1000E00037D00895B02FB07FBBB92A9A289A2DD067
:1000F00028982ED0B02FB295B07FBBB9289A25D0C2
:10010000289826D00895022F7BD0ECDF2BD080D00A
:10011000E9DF28D000ECD5DF20D000E5E3DF22D0F6
:1001200002E7E0DF1FD000E2DDDF0CE4DBDF1AD006
:1001300003E4D8DF17D004E4D5DF14D001E2D2DF26
:1001400011E110D01A95E9F7089500000000089514
:100150004AE5FBDF4A95E9F7089558E2F9DF5A9539
:10016000E9F7089544E154E164E16A95F1F75A959D
:10017000D9F74A95C1F708951FEF2AD0219A2998F7
:100180001DD0299A21981999FECF199BFECF199954
:10019000FECF04D003D002D075DFEFCF18E02227C6
:1001A000199BFECF1FD0199B03C00894221F01C0CA
:1001B000220F1999FECF1A9599F708955FEF62ED16
:1001C00072E07A95F1F76A95D9F75A95C1F70895D3
:1001D0005FEF6FEF74EA7A95F1F76A95D9F75A9560
:1001E000C1F70895442746BD44E647BD4AE045BDF2
:1001F00045B341FFFDCF442745BD42E045BB0895CF
:10020000702F007F0295005DC02FCA5342F40895FD
:10021000072F0F70005DC02FCA531AF40895095FAD
:0A022000F6CF095FFBCFF894FFCF83
:107E0000112484B714BE81FFF0D085E080938100F7
:107E100082E08093C00088E18093C10086E0809377
:107E2000C20080E18093C4008EE0C9D0259A86E02C
:107E300020E33CEF91E0309385002093840096BBD3
:107E4000B09BFECF1D9AA8958150A9F7CC24DD24C4
:107E500088248394B5E0AB2EA1E19A2EF3E0BF2EE7
:107E6000A2D0813461F49FD0082FAFD0023811F036
:107E7000013811F484E001C083E08DD089C08234E0
:107E800011F484E103C0853419F485E0A6D080C0E4
:107E9000853579F488D0E82EFF2485D0082F10E0AE
:107EA000102F00270E291F29000F111F8ED06801E7
:107EB0006FC0863521F484E090D080E0DECF843638
:107EC00009F040C070D06FD0082F6DD080E0C81688
:107ED00080E7D80618F4F601B7BEE895C0E0D1E017
:107EE00062D089930C17E1F7F0E0CF16F0E7DF06D8
:107EF00018F0F601B7BEE89568D007B600FCFDCFD4
:107F0000A601A0E0B1E02C9130E011968C91119780
:107F100090E0982F8827822B932B1296FA010C0160
:107F200087BEE89511244E5F5F4FF1E0A038BF0790
:107F300051F7F601A7BEE89507B600FCFDCF97BE46
:107F4000E89526C08437B1F42ED02DD0F82E2BD052
:107F50003CD0F601EF2C8F010F5F1F4F84911BD097
:107F6000EA94F801C1F70894C11CD11CFA94CF0C13
:107F7000D11C0EC0853739F428D08EE10CD085E9AC
:107F80000AD08FE07ACF813511F488E018D01DD067
:107F900080E101D065CF982F8091C00085FFFCCF94
:107FA0009093C60008958091C00087FFFCCF809118
:107FB000C00084FD01C0A8958091C6000895E0E648
:107FC000F0E098E1908380830895EDDF803219F02E
:107FD00088E0F5DFFFCF84E1DECF1F93182FE3DFCA
:107FE0001150E9F7F2DF1F91089580E0E8DFEE27F6
:047FF000FF270994CA
:027FFE00040479
:00000001FF
