:100000000C9434000C94A9010C943E000C943E0016
:100010000C943E000C943E000C943E000C943E0068
:100020000C943E000C943E000C943E000C943E0058
:100030000C943E000C943E000C943E000C943E0048
:100040000C943E000C943E000C943E000C943E0038
:100050000C943E000C943E000C943E000C943E0028
:100060000C943E000C943E0011241FBECFEFD8E04C
:10007000DEBFCDBF0E9440000C94BB010C94000079
:100080006DD00FEF04B9239A249A529871E07DBB8A
:1000900072E07093690078942B984CD11B9901C041
:1000A000FDCF0CE07AD09ED00CC0C231EFEF00D073
:1000B000FAE02C9A1BD12C9805D1FA95D1F73AD1B8
:1000C0000895EFEF1B9B71C007D1219A2998FAD0B0
:1000D000299A21981999FECF199BFECF1999FECF25
:1000E00006D0A22F04D003D0C22F64D0EBCF18E0EB
:1000F0002227199BFECF08D1199B03C00894221F09
:1001000001C0220F1999FECF1A9599F7089550E072
:100110005093B90058E45093B80054E05093BC0099
:10012000089554EA5093BC005091BC0057FFFCCF97
:1001300008958093BB0054E85093BC005091BC00DC
:1001400057FFFCCF089554E95093BC000895E9DFB0
:1001500080E4EFDF822FEDDFF6DF089503E31DD0AB
:1001600002E31BD008E219D00CE017D001E015D053
:1001700006E013D00895202F207F242B06D0202FB7
:100180002295207F242B01D00895E1DF2460DFDF5A
:10019000C9D02B7FDCDFC9D0089540E0ECDFCAD0A6
:1001A000089541E0E8DFC6D0089501E0F6DF08E0F9
:1001B000F4DF74CF01E0F1DF06E0EFDF43D00C2F76
:1001C00009D04FD000ECE9DF51D00A2F03D005E26F
:1001D000D2DF08955AD0012F005DCDDF032F005DDF
:1001E000CADF08950BE4DDDF05E6DBDF0CE6D9DFCF
:1001F0000FE6D7DF0DE6D5DF00E7D3DF0FE6D1DF6F
:100200000BE6CFDF00E2CDDF01E3CBDF00ECC5DFA3
:1002100001E4C7DF03E4C5DF00E2C3DF01E4C1DFBF
:1002200005E7BFDF04E7BDDF0FE6BBDF0DE6B9DFA3
:1002300001E6B7DF04E7B5DF05E6B3DF4DD001E047
:10024000ACDF089503E5ADDF05E7ABDF08E6A9DF26
:1002500005E7A7DF00E2A5DF00E2A3DF0AE3A1DFF5
:1002600008950FED9EDF03E49CDF089508E499DF15
:1002700005E797DF0DE695DF09E693DF04E691DFFA
:1002800000E28FDF0AE38DDF089511273327FAE0BC
:100290000F1718F00F1B1395FBCF302F0895702FF9
:1002A000007F0295005D902F9A5342F40895072F26
:1002B0000F70005D902F9A531AF40895095FF6CFDE
:1002C000095FFBCF5FEF62ED72E07A95F1F76A9517
:1002D000D9F75A95C1F708955FEF6FEF74EA7A95F1
:1002E000F1F76A95D9F75A95C1F70895552756BD84
:1002F0005E2F57BD5CE055BD55B351FFFDCF55276F
:1003000055BD52E055BB0895442746BD44E647BD60
:100310004AE045BD45B341FFFDCF442745BD42E01E
:1003200045BB0895000000000895EAE5FBDFEA956B
:10033000E9F70895D8E2F9DFDA95E9F7089544E19D
:1003400054E164E16A95F1F75A95D9F74A95C1F7F6
:1003500008951F920F920FB60F9211248F939F93BF
:1003600085B198E0892785B99F918F910F900FBE35
:0A0370000F901F901895F894FFCF2E
:00000001FF
